:100000000C94CE020C9415030C9415030C94150358
:100010000C9415030C9415030C9415030C94150300
:100020000C9415030C9415030C94FC270C94CE2807
:100030000C9420230C9415030C9415030C941503B5
:100040000C9415030C9415030C9415030C941503D0
:100050000C9415030C9479230C9415030C9415033C
:100060000C9415030C9415030C9415030C941503B0
:100070000C9415030C9415030C9415030C941503A0
:100080000C9415030C9415030C9415030C94150390
:100090000C9415030C9415030C9415030C94150380
:1000A0000C9415030C9415030C941503C405C40596
:1000B000F605F60543066106820782076C0601070E
:1000C000120712077207820782077B07220822089D
:1000D000340834082B08340834083408220822086D
:1000E00030083408340830083B2962295A2A62292A
:1000F0005A2AAE29D1295A2A282A372A2900140037
:100100001A000800150017001C0018000C0012004F
:1001100013002A002B0004001600070009000A0043
:100120000B000D000E000F0000002800E100000091
:100130001D001B000600190005001100100036000C
:1001400037000041E000E300E20000002C002C003A
:100150000000000000000042E600E4001E001F0056
:100160002000210022002300240025002600270073
:100170002D002E00390000000000000000000000EB
:10018000000000002F00300000008900E1000000A6
:1001900000000000000000000000000033003400F8
:1001A00032000000E000E300E20000008A00880066
:1001B000000000000000E600E700E40029003A002B
:1001C0003B003C003D003E003F004000410052002B
:1001D00000004C003900A800B000000042004300BD
:1001E0004400450050004F0000002800E1000000DE
:1001F000EE00ED00000000000000000000005100D3
:1002000038008700E000E300E20000008A00880078
:100210000000000000000000E700E40000047F3F51
:100220001F643214643214783C1E1E140A05222303
:10023000252628292A2C2D2F3032333536383A3BC3
:100240003D3E4042434547494A4C4E505153555715
:10025000595A5C5E6062646668696B6D6F71737534
:1002600077797B7D7F81838587898A8C8E90929434
:1002700096989A9C9E9FA1A3A5A7A8AAACAEAFB141
:10028000B3B4B6B8B9BBBCBEBFC1C2C3C5C6C7C98B
:10029000CACBCCCDCED0D1D2D2D3D4D5D6D7D7D845
:1002A000D9D9DADADBDBDBDCDCDCDCDCDDDDDDDD97
:1002B000DCDCDCDCDCDBDBDBDADAD9D9D8D7D7D69F
:1002C000D5D4D3D2D2D1D0CECDCCCBCAC9C7C6C556
:1002D000C3C2C1BFBEBCBBB9B8B6B4B3B1AFAEAC9C
:1002E000AAA8A7A5A3A19F9E9C9A98969492908E47
:1002F0008C8A89878583817F7D7B79777573716F20
:100300006D6B6968666462605E5C5A5957555351FB
:10031000504E4C4A4947454342403E3D3B3A3836B1
:10032000353332302F2D2C2A292826252322FFAAC7
:100330007F5540000101010101010101010202029A
:100340000202020202020303030303030303040481
:10035000040404040405050505050606060606074B
:100360000707070708080808090909090A0A0A0B04
:100370000B0B0C0C0C0D0D0D0E0E0E0F0F0F1010A5
:10038000111111121213131414151516161717182C
:100390001819191A1A1B1B1C1D1D1E1E1F20202197
:1003A0002222232424252626272829292A2B2C2DDE
:1003B0002D2E2F30313232333435363738393A3BFF
:1003C0003C3D3E3F404142434445464748494A4CF4
:1003D0004D4E4F50515354555658595A5B5D5E5FC0
:1003E000616264656668696B6C6D6F707273757756
:1003F000787A7B7D7E8082838587888A8C8E8F91B8
:10040000939596989A9C9EA0A2A3A5A7A9ABADAFE1
:10041000B1B3B5B7BABCBEC0C2C4C6C9CBCDCFD1CB
:10042000D4D6D8DBDDDFE2E4E7E9EBEEF0F3F5F874
:10043000FAFDFF0C0341004D004A0034003000007B
:10044000001203480061006E002000430068006550
:10045000006E0000000403090409023B00020100D1
:10046000A0FA0904000001030101000921110100A3
:10047000012240000705810308000A090401000168
:100480000300000009211101000122B600070582C6
:100490000320000A1201000200000008EDFE726055
:1004A00002000102000105010902A1018502090102
:1004B000A1000509190129081500250195087501F4
:1004C00081020501093009311581257F95027508E2
:1004D000810609381581257F950175088106050C6F
:1004E0000A38021581257F950175088106C0C0056F
:1004F000010980A101850319012AB700150126B75A
:1005000000950175108100C0050C0901A101850449
:1005100019012AA002150126A0029501751081007B
:10052000C005010906A1018505050719E029E715A0
:100530000025019508750181020507190029EF15AD
:1005400000250195F075018102050819012905951D
:100550000575019102950175039101C00501090618
:10056000A101050719E029E7150025019508750186
:1005700081029501750881010507190029FF150001
:1005800026FF0095067508810005081901290595C3
:100590000575019102950175039101C011241FBEDB
:1005A000CFEFDAE0DEBFCDBF04B603FE27C08091F7
:1005B000D9029091DA02A091DB02B091DC0287307F
:1005C000904BA740B04BD1F41092D9021092DA02AE
:1005D0001092DB021092DC0214BE84B7877F84BFC6
:1005E0000FB6F894A89580916000886180936000B0
:1005F000109260000FBEE0E0F8E3099511E0A0E082
:10060000B1E0E6E0F7E502C005900D92A03CB1072D
:10061000D9F722E0A0ECB1E001C01D92A93DB207DC
:10062000E1F70E942C140C94812B0C94000081E0C3
:10063000089581E008950C94190308950C941D0306
:100640001F93CF93DF9300D000D01F92CDB7DEB7BA
:1006500049835A836B833091C20189819A81311118
:1006600014C0662359F0222349F00E94C609182FAE
:10067000682F89819A810E946F0903C00E949A099C
:10068000182F69817A81812F04C00E94C60969816F
:100690007A810F900F900F900F900F90DF91CF9174
:1006A0001F910C946910FC01262F408151816281B9
:1006B000738184810C94200381E00895CF93DF93AC
:1006C000EC0160E00E945303BE01DF91CF910C94D6
:1006D0001E030E9496120E94F5030E94451F0C946F
:1006E000D3120C94CF1208950E9410080E94730335
:1006F0002FEF84E39CE0215080409040E1F700C060
:1007000000000C949F230F931F93CF93DF938C01D2
:1007100061E00E945303EC01B8010E941B0388238F
:1007200009F44BC0B801CE010E94AE1E882309F423
:1007300044C0B801CE010E94F31F8823F1F1B80133
:10074000CE010E9445208823C1F1B801CE010E944C
:100750007021882391F1B801CE010E94F51C8823F5
:1007600061F1F8018281882309F1CB358DE5D80745
:10077000C1F050F4C115FCE5DF0781F0CF3DDC4549
:10078000A9F40E94610F19C0CC35EDE5DE0761F0D8
:10079000CD35DD4559F40E94E50D08C00E94740373
:1007A0000CC00E94EE0D02C00E94F10DC801DF9145
:1007B000CF911F910F910C94170380E0DF91CF919F
:1007C0001F910F91089508950C94E30381E008951B
:1007D000CF93C82F0E94E603882329F0C1FD02C0F1
:1007E0002A9A01C02A98CF910895229A2A9A0895A8
:1007F000CF93C82F0E94E4038C2F0E94E803CF916F
:100800000895CF93DF93CDB7DEB72B970FB6F8944B
:10081000DEBF0FBECDBF4F83588769877A878B872E
:1008200061110E94140E9E012F5F3F4F86E0F90177
:1008300011928A95E9F785E0FE013796D90101907A
:100840000D928A95E1F789819A814C815D81452BD2
:1008500031F09F3F31F491E08F3F19F403C091E0F4
:1008600001C090E090FF09C049815A816B817C8171
:100870008D819E810E94140D05C0C9010E945C03F8
:100880008111F2CF2B960FB6F894DEBF0FBECDBF0D
:10089000DF91CF910895FC01808191810E94080A27
:1008A0000895CF93882309F4A4C0C82F8238C1F4D7
:1008B0000E94A62181FD9DC069E380910001909175
:1008C00001010E949C220E94460E2FEF81EE94E0CF
:1008D000215080409040E1F700C0000069E319C05A
:1008E000833801F50E94A62180FD83C063E58091D5
:1008F0000001909101010E949C220E94460E2FEF60
:1009000081EE94E0215080409040E1F700C000006B
:1009100063E580910001909101010E94A722CF918F
:100920000C94460E8438C1F40E94A62182FD61C059
:1009300067E480910001909101010E949C220E9435
:10094000460E2FEF81EE94E0215080409040E1F779
:1009500000C0000067E4DDCF8CEF8C0F813AD0F44B
:100960006C2F80910001909101010E941C2288232C
:1009700049F06C2F80910001909101010E94A72203
:100980000E94460E6C2F80910001909101010E94FF
:100990009C22C5CF80E28C0F883048F4C77081E07C
:1009A00001C0880FCA95EAF70E94F70DB8CFEBE5B2
:1009B000EC0FE33040F4F0E0EA5AFE4F808190E023
:1009C000CF910C94DA21E8E5EC0FE73150F4F0E038
:1009D000EE0FFF1FE85DFE4F80819181CF910C9457
:1009E000F021CD3E30F08C2F0E94B914CF910C94A1
:1009F0008B15CF910895882309F464C0823879F467
:100A00000E94A62181FF5EC069E380910001909160
:100A100001010E949C220E94460E69E310C08338A7
:100A2000B1F40E94A62180FF4DC063E580910001D2
:100A3000909101010E949C220E94460E63E58091E4
:100A40000001909101010E94A7220C94460E843867
:100A500079F40E94A62182FF35C067E480910001ED
:100A6000909101010E949C220E94460E67E4E7CF0C
:100A70009CEF980F913A10F4682FE1CF90E2980F15
:100A8000983050F4877091E001C0990F8A95EAF789
:100A9000892F0E94FD0DD9CF9BE5980F933020F44C
:100AA00080E090E00C94DA2198E5980F973120F4DB
:100AB00080E090E00C94F0218D3E20F00E9414150F
:100AC0000C948B1508951F93CF93DF93182FEB0190
:100AD0000E945104209741F08FE99FE00197F1F7C0
:100AE00000C000002197F6CF812FDF91CF911F9199
:100AF0000C94FB04893319F060E070E002C060E5FB
:100B000070E00C946305882321F00E94F70D0C948B
:100B1000460E0895882321F00E94FD0D0C94460E88
:100B20000895CF92DF92EF92FF920F931F93CF938E
:100B3000DF937C01062FC72FFC01D281158112950E
:100B40001F700E94CC0D882399F0DD2389F08C2F33
:100B5000807F803421F080E2800F883048F082E08E
:100B60000E94960E0E94CC0D91E0D82ED92601C08D
:100B7000D12CCC2EC2948FE0C8228C2D90E0FC01A9
:100B8000EA5AFF4F0C94E82A8C2F807FCF7088237D
:100B900011F0C295C07FDD2399F0CC2309F48DC1FB
:100BA00080E2800F883010F0011104C08C2F0E9469
:100BB000F70D03C08C2F0E94070E0E94460E7DC1C8
:100BC000802F0E94FB04CC2309F49CC180E2800F9B
:100BD000883010F0011104C08C2F0E94FD0D03C05D
:100BE0008C2F0E940D0E0E94460E8CC18C2F807F90
:100BF000CF70803211F0C295C07F002319F0013010
:100C0000C9F022C0DD2371F0112341F0113031F41D
:100C10000E94270E8C2B0E942F0E74C10E94270E5B
:100C20008C2B1DC0112319F0113009F46BC10E94E7
:100C30003C0E25C0DD2321F0163008F063C10EC044
:100C4000153008F05FC11BC0DD2361F0112331F0C6
:100C5000F701858180FF31C18F7085838C2F0E94C1
:100C6000830550C1112359F0093309F037C1FFEF53
:100C700027EE83E0F15020408040E1F72DC18C2F1A
:100C80000E948A053FC18C2F86958695837019F046
:100C9000813061F037C1DD2321F0802F9C2F9370CC
:100CA00002C080E090E00E94DA2134C1DD2321F00F
:100CB000802F9C2F937002C080E090E00E94F02172
:100CC00029C1802FDD2319F00E94B91402C00E94AF
:100CD00014150E948B151EC18C2F837009F045C01E
:100CE000D11114C1402F429546954770440F440FCF
:100CF000602F6F70862F90E0A0E0B0E0042E04C05B
:100D0000880F991FAA1FBB1F0A94D2F704FF10C0B7
:100D10000FE010E020E030E004C0000F111F221FA0
:100D2000331F4A95D2F7009510952095309503C052
:100D300000E010E09801C695C695C370BC01CD01D6
:100D4000602B712B822B932BC23049F058F4C130A9
:100D500019F00E948508DAC00E947308D7C00E946B
:100D60009708D4C00E947108D1C0DD2319F08C2FE0
:100D7000817001C08695882309F4C8C0402F429530
:100D800046954770440F440F602F6F70862F90E098
:100D9000A0E0B0E0042E04C0880F991FAA1FBB1F5B
:100DA0000A94D2F704FF10C00FE010E020E030E01A
:100DB00004C0000F111F221F331F4A95D2F7009560
:100DC00010952095309503C000E010E09801C6957D
:100DD000C695C370BC01CD01602B712B822B932B68
:100DE000C23049F058F4C13019F00E944A098EC04F
:100DF0000E9438098BC00E945C0988C00E94AB0821
:100E000085C0CF70DD2339F08C2F0E94D108802F50
:100E10000E9483057BC0802F0E948A058C2F0E9430
:100E2000F20874C0023F01F128F4003F41F0013F95
:100E3000A1F03FC0033FF9F0043F39F13AC0DD2390
:100E400041F0153008F05EC08C2F8F710E94170999
:100E500059C0163008F056C0F7CFDD2339F08C2F7B
:100E60008F710E94D1084EC0DD23C9F38C2F8F7182
:100E70000E94F20847C0DD2329F08C2F8F710E9459
:100E8000BC0840C00E94B7083DC0DD2349F0CF71C7
:100E90008C2F0E94D10863E08C2F0E947B0E32C001
:100EA00081E00E94960E123068F182E00E94960E58
:100EB00029C0DD2331F0112391F2802F0E945104CB
:100EC00021C0112399F2093349F49FEFE7EEF3E0D3
:100ED0009150E040F040E1F700C00000802F0E94F8
:100EE000FB0410C04C2F4F70602FC7010E9465108B
:100EF0000E94360A0FC04C2F4F70602FC7010E940E
:100F0000681008C088EF8C0D843020F40E94A62160
:100F10000E94F803DD20C9F00E94C80D80FD15C0B5
:100F2000F70112820E94C20D0E94D108C7010E94DF
:100F3000C6070E94C20DDF91CF911F910F91FF90C4
:100F4000EF90DF90CF900C94F208DF91CF911F913A
:100F50000F91FF90EF90DF90CF9008950F931F9324
:100F6000CF93DF93EC01688179818A810E94130A13
:100F70008C010E946E090E945F08B801CE010E9498
:100F80009105DF91CF911F910F910895CF93DF933A
:100F9000EC01988189812B813C81232B31F08F3F9B
:100FA00031F481E09F3F19F403C081E001C080E08B
:100FB00080FD19C0CE010E94830381110CC00E94E4
:100FC000CC0D882381F08A81882369F082E0DF914B
:100FD000CF910C94960ECE010E94AE07CE01DF9108
:100FE000CF910C945E03DF91CF91089580E090E063
:100FF0000E94DA2180E090E00E94F0210E94140E0D
:101000000E94240E0E94460E0E94BC160C948B1562
:1010100080910001909101010E94B2220C94F60788
:101020000E94040E0C940808E92FE295EF704E2FF1
:1010300050E0FA013297EE30F105B0F4EA59FF4F73
:101040000C94E82A803F91F018F4883E68F40EC0B2
:10105000843F51F40BC0883E48F0813F29F406C01C
:1010600093FB882780F9089580E0089581E0089532
:10107000FC01808191810E94080A0E941408089551
:10108000CF93DF9300D000D01F92CDB7DEB70F9083
:101090000F900F900F900F90DF91CF910895CF9305
:1010A000DF9300D000D000D0CDB7DEB726960FB6C4
:1010B000F894DEBF0FBECDBFDF91CF9108950895A4
:1010C00008950C9460080C9461080E946308609372
:1010D000E5017093E6018093E7019093E8010C9499
:1010E000F6070C9465080F931F930091E50110918A
:1010F000E6012091E7013091E801602B712B822BF2
:10110000932B1F910F910C9465080F931F930091DF
:10111000E5011091E6012091E7013091E80160239B
:101120007123822393231F910F910C9465080F93D1
:101130001F930091E5011091E6012091E7013091A4
:10114000E80160277127822793271F910F910C9444
:1011500065080C9460080E94A9086093E1017093EF
:10116000E2018093E3019093E4010C94F60760E0C0
:1011700070E0CB010C94AB080F931F9341E050E05B
:1011800060E070E08A019B0104C0000F111F221F64
:10119000331F8A95D2F7C901B8011F910F910C94A2
:1011A000AB080F931F9341E050E060E070E004C093
:1011B000440F551F661F771F8A95D2F78091E10172
:1011C0009091E201A091E301B091E4018A019B01B9
:1011D000082B192B2A2B3B2BC901B8011F910F910A
:1011E0000C94AB080F931F9341E050E060E070E077
:1011F00004C0440F551F661F771F8A95D2F740958C
:101200005095609570958091E1019091E201A091D7
:10121000E301B091E4018A019B01082319232A23E9
:101220003B23C901B8011F910F910C94AB080F9398
:101230001F9341E050E060E070E004C0440F551F90
:10124000661F771F8A95D2F78091E1019091E201A4
:10125000A091E301B091E4018A019B0108271927BD
:101260002A273B27C901B8011F910F910C94AB08A5
:101270000F931F930091E1011091E2012091E3018E
:101280003091E401602B712B822B932B1F910F91D6
:101290000C94AB080F931F930091E1011091E201B0
:1012A0002091E3013091E401602371238223932391
:1012B0001F910F910C94AB080F931F930091E101C4
:1012C0001091E2012091E3013091E4016027712740
:1012D000822793271F910F910C94AB0808952CE05F
:1012E000929F800D1124E82FE695E695E69587708C
:1012F00051E001C0550F8A95EAF785E0E89FF001BB
:101300001124ED53FE4F20E030E070E04081CB012E
:10131000022E02C0969587950A94E2F78170819516
:1013200084278523842781932F5F3F4F2530310504
:1013300069F708952CE0929F800D1124682F66951F
:1013400066956695982F977085E0689FB001112487
:1013500040E050E080E0FB01E40FF51FED53FE4F4D
:10136000208130E0092E02C0369527950A94E2F7D5
:1013700021703327042E01C0220F0A94EAF7822B32
:101380004F5F5F4F4530510531F70895BF92CF92BF
:10139000DF92EF92FF920F931F93CF93DF938C0115
:1013A000C090E101D090E201E090E301F090E4010F
:1013B0008091E5019091E601A091E701B091E801EB
:1013C000C82AD92AEA2AFB2ACFE1D0E0D701C601F0
:1013D0000C2E04C0B695A795979587950A94D2F7D9
:1013E00080FD04C0219790F7B12C07C0BC2EB80136
:1013F0008C2F0E94A0110197A9F38B2DDF91CF9123
:101400001F910F91FF90EF90DF90CF90BF900895C4
:10141000CF93DF93EC010E94C609BE010E94A01188
:10142000DF91CF9108951F93CF93DF93EB019091BC
:10143000C201992321F0CB010E94080A13C088231E
:1014400049F0CB010E94C609182F682FCE010E94D7
:101450006F0904C0CB010E949A09182FBE01812F89
:101460000E94A011DF91CF911F910895EF92FF92FA
:101470000F931F93CF93DF938C01892B09F46CC0DA
:10148000F12CEE24E394E8012196F801849184374D
:1014900040F4843008F051C0813081F0823019F17D
:1014A0005BC0853709F444C0A8F19CE7980F9037DA
:1014B00008F052C08F770E94FB0441C00E5F1F4F9F
:1014C000FE01849190E2980F983050F48770FE2DC1
:1014D00001C0FF0F8A95EAF78F2F0E94170E14C0E4
:1014E0000E9451042DC00E5F1F4FFE01849190E2B7
:1014F000980F983060F48770FE2D01C0FF0F8A9519
:10150000EAF78F2F0E941D0E0E94460E19C00E94FE
:10151000FB0416C00E5F1F4FFE01C491CC2381F067
:101520008FE99FE00197F1F700C00000C150F6CFAE
:101530000E5F1F4FFE01F49003C00E9451048E0104
:101540008F2D882309F49FCFEFE9FFE03197F1F762
:1015500000C000008150F5CFDF91CF911F910F9116
:10156000FF90EF9008951F93CF93DF93C091E9010F
:1015700016E08091EA01C81799F0D0E01C9FF001B5
:101580001D9FF00D1124E551FE4F40815181628174
:101590007381848195810E944F082196C770E9CF9D
:1015A000DF91CF911F91089540911B0250911C0231
:1015B00060911D0270911E0280911F029091200285
:1015C0000C944F080F931F93CF93DF9380912002C9
:1015D00082958F7009F05DC080911D02882309F407
:1015E00058C08091E9011091EA0160911B0270914D
:1015F0001C02C0911E02D0911F0291E06F3F09F0C2
:1016000090E0292F06E0811709F443C0209721F0CC
:101610007F3F21F030E003C031E001C0322F90E085
:1016200030FD34C0089FF001099FF00D1124DF0147
:10163000A551BE4F11963C911197371327C03C918D
:10164000361324C012963C91129731111FC0139685
:101650004D915C9114974C1B5D0B483C5105B0F4C7
:10166000809120028F70806180932002E051FE4FB4
:1016700080818F70806180838BE192E00E94C60739
:10168000DF91CF911F910F910C94B30A019687704F
:10169000BACFDF91CF911F910F9108959F92AF9292
:1016A000BF92CF92DF92EF92FF920F931F93CF934F
:1016B000DF93CDB7DEB761970FB6F894DEBF0FBEEC
:1016C000CDBF8C0185E0F801DE011D9601900D92E1
:1016D0008A95E1F7F801E28090911B0260911C026B
:1016E00020911E0230911F022115310531F06F3F0C
:1016F00031F481E09F3F19F403C081E001C080E034
:10170000F82FF1709F2E80FD3FC1F801408151817B
:10171000A380B4808BE1C82E82E0D82EF0901D0209
:10172000F501E21BF30BFF2009F4D9C080912002E0
:10173000E83CF10508F095C0282F207F09F052C041
:10174000561313C0491311C0FE2CE1100EC08F7048
:101750008061809320020E94D40AC6010E94C607BD
:1017600080912002F80185834CC1AB2831F05F3FA6
:1017700031F481E04F3F19F403C081E001C080E003
:1017800080FD03C081E08E2502C080E090E0F82F4C
:10179000F170FF2E80FF1CC08091E9012091EA01C9
:1017A00036E0821709F40BC190E0389FF001399FB1
:1017B000F00D1124E551FE4F6181561306C0608182
:1017C000461303C06281E61203C001968770E9CF19
:1017D000FE2CEE2009F415C18091200281608093D7
:1017E000200254C0561306C0491304C0E11002C0C1
:1017F000F80199C0C8010E943808882361F1EE20E1
:1018000051F120912002822F82958F7090E00297F3
:1018100074F080911B0290911C0298878F83198627
:10182000BB86AA862C87CE0107960E94C60786E053
:10183000F801ABE1B2E001900D928A95E1F70E94C8
:10184000E20A0E94D40A0AC0561711F1C8010E9488
:10185000380881112CC0C8010E94C607FF24F394E8
:10186000D0C0282F207F81F77A2DB98AA88A6E2DC3
:1018700089890E9440088BE192E00E94C60786E0B9
:10188000F60111928A95E9F70E94D40AF12CB9C0A9
:101890004913DCCFE110DACFF8018583C8010E943B
:1018A000C60786E0F60111928A95E9F7AAC0EE20F4
:1018B00091F220912002822F82958F7090E0029702
:1018C0000CF4B5CF80911B0290911C029A838983FE
:1018D0001B82BD82AC822E83CE010196A6CFE83C4E
:1018E000F10508F044C0FE2CEE2009F4B4CF5613E5
:1018F00030C049132EC02091200220FD21C0822F2C
:1019000082958F70482F50E041155105C9F0F801BC
:1019100025834F30510541F08F5F982F9295907F2E
:10192000822F8F70892B8583C8010E94C60786E0AD
:10193000F801ABE1B2E001900D928A95E1F73CC06D
:1019400086E0F801ABE1B2E001900D928A95E1F7F3
:1019500058C0C8010E943808811169CF80912002C7
:10196000816080932002C8010E94C6074AC07A2D78
:10197000B98AA88A6E2D89890E94400886E0F601FE
:1019800011928A95E9F718C0EE2009F464CFC801D6
:101990000E943808F82E882309F45DCF86E0F8010C
:1019A000ABE1B2E001900D928A95E1F78BE192E014
:1019B0000E944B040E94E20A0E94D40A22C04D8772
:1019C0005E878D859E850E94080A292F22952F709B
:1019D000223028F49F7039F0811105C00BC02430EB
:1019E00028F49F7049F4805E883020F0C8010E947E
:1019F000C6079F2CF92C05C0F8019581907F99F7B7
:101A0000F9CF8F2D61960FB6F894DEBF0FBECDBF14
:101A1000DF91CF911F910F91FF90EF90DF90CF90CA
:101A2000BF90AF909F9008951F93CF93DF93CDB752
:101A3000DEB72C970FB6F894DEBF0FBECDBF4F8335
:101A4000588769877A878B879C87CE0107960E9483
:101A50004E0B8823D1F09F8188852A853B85232BD7
:101A600031F08F3F31F481E09F3F19F403C081E0F2
:101A700001C080E080FD47C04F81588569857A8527
:101A80008B859C850E944F083EC086E0FE013796FC
:101A9000DE01119601900D928A95E1F7FF81E885AC
:101AA0006A857B856115710531F0EF3F31F481E086
:101AB000FF3F19F403C081E001C080E080FD23C036
:101AC0002091EA0130E0C901019687709927409181
:101AD000E90150E084179507F1F1F983EA837D83EA
:101AE0006C8396E0929FD001939FB00D1124A55175
:101AF000BE4FFE01319601900D929A95E1F78093C9
:101B0000EA010E94B30A16E08091E9019091EA018E
:101B1000891771F1189FC001112485519E4F0E94B1
:101B20004E0B882329F1E091E9011E9FF001112459
:101B3000E551FE4F4081518162817381848195819D
:101B40000E944F088091E90190E0019687709927E3
:101B50008093E901D9CF0E9410081092EA011092F7
:101B6000E901EBE1F2E086E0DF011D928A95E9F7F9
:101B70002C960FB6F894DEBF0FBECDBFDF91CF918C
:101B80001F910895809121028595859585950895E9
:101B9000809121028770089590912102977081E0D1
:101BA00009F480E008959091A50292FB222720F984
:101BB000281751F080FB92F99093A5028091A4021E
:101BC0009091A5020C94DD0E08958091A50282FBF0
:101BD000882780F991E089270C94D30D81E00C943B
:101BE000D30D80E00C94D30D80914502089590911F
:101BF0004502892B80934502089580959091450276
:101C0000892380934502089510924502089590918A
:101C10004402892B80934402089580959091440258
:101C2000892380934402089510924402089590916C
:101C30004302892B8093430208958095909143023B
:101C4000892380934302089510924302089580915E
:101C50002202089508950C942A0E0C942B0E909154
:101C6000A50292FD08C090912202981721F080935E
:101C700022020C942D0E089580912202882329F0CF
:101C80001092220280E00C942D0E0895E091000144
:101C9000F0910101809145028083E0910001F09173
:101CA0000101908180914402892B8083E0910001A1
:101CB000F0910101908180914302892B8083809172
:101CC0002202882381F0E0910001F09101019081CE
:101CD000892B808380910001909101010E9406224E
:101CE00081110E943C0E80910001909101010C94A1
:101CF000B2210C942A0E9091A50292FD10C098E09A
:101D0000899F90011124262B209321020E94D10843
:101D1000809121028595859585950C94790E0C947A
:101D2000D1081092210280E00C94790E20912102BA
:101D30008095822380932102982F977041F430E0A0
:101D4000482F082E000C550B2417350721F49091CD
:101D5000A50292FF07C08595859585950E94F2089A
:101D60000C94910E08956FEF7FEF80E090E00C945B
:101D70006B2B80E090E00E94472B21E0893E9E4F34
:101D800009F020E0822F089582E090E00C94392B36
:101D900083E090E00C94392BCF9384E090E00E9494
:101DA000392BC82F82E290E00E94392B2C2F30E093
:101DB000A901582BCA01CF910895CF93C92F682F3D
:101DC00084E090E00E944D2B6C2F82E290E0CF9156
:101DD0000C944D2BAB01BC018FE090E00C945F2B79
:101DE000AB01BC0183E190E00C945F2B60E070E0FC
:101DF000CB010C94F00E60E070E0CB010E94EA0E83
:101E00000C94F60E69EE7EEF80E090E00E946B2B62
:101E100060E082E090E00E944D2B60E083E090E083
:101E20000E944D2B1092E5011092E6011092E701FD
:101E30001092E80160E084E090E00E944D2B60E0A9
:101E400082E290E00E944D2B60E085E090E00E94ED
:101E50004D2B60E086E090E00E944D2B6FEF87E015
:101E600090E00E944D2B40E050E0BA0188E090E005
:101E70000E945F2B60E08DE090E00E944D2B40E0DF
:101E800050E0BA0188E190E00E945F2B60E087E1BA
:101E900090E00E944D2B40E050E0BA018CE190E0D0
:101EA0000E945F2B60E070E080E290E00E946B2B6C
:101EB00040E050E0BA0188E190E00E945F2B0C9472
:101EC000FB0E0C94020F682F8EE090E00C944D2BCB
:101ED0000E945E23609353027093540280935502D4
:101EE0009093560260934F02709350028093510278
:101EF00090935202089585B7806885BF85B7806842
:101F000085BF089581E008950C94820F08950C9484
:101F1000860F0C94860F0C94890F0C94860F0C94EA
:101F20008D0F0C94860F0E947B0F8CE792E10E942C
:101F3000C3230E94910F0C948F0F0E94870F0C9463
:101F4000860F0E9449230E9484130E94D21D0E9482
:101F5000141C0C948B0F6F927F928F929F92AF9272
:101F6000BF92CF92DF92EF92FF920F931F93CF9386
:101F7000DF93CDB7DEB72A970FB6F894DEBF0FBE5A
:101F8000CDBF0E94A61381110E94680F37E4832EF3
:101F900032E0932E00E010E0C02E802F0E94BA1293
:101FA0005C01F401619071904F01682679266114FB
:101FB0007104B1F40F5F1F4F0430110569F78FEF03
:101FC00089838A831B820E9452238160782F9D839C
:101FD0008C8349815A816B818D810E9401043AC0B2
:101FE0008091570281FD0E94C312D12CEE24E3940C
:101FF000F12CC3018E219F21892B29F10E94840F8E
:102000008823A9F0DE82CF82AE20BF2081E0AB28FA
:1020100009F480E088870E9452238160782F9A8794
:1020200089874E815F8168858A850E940104000F3F
:10203000111FF801E95BFD4F80819181E826F926A7
:10204000F182E08207C0D394EE0CFF1CFCE0DF12AB
:10205000D0CFB0CF0E94471C0E94441F0E94A915F8
:102060000E94A621909146028917D1F00E94A621D4
:10207000809346022A960FB6F894DEBF0FBECDBFFE
:10208000DF91CF911F910F91FF90EF90DF90CF9054
:10209000BF90AF909F908F907F906F900C94F803BB
:1020A0002A960FB6F894DEBF0FBECDBFDF91CF9159
:1020B0001F910F91FF90EF90DF90CF90BF90AF9066
:1020C0009F908F907F906F90089580E090E00895AA
:1020D000089520E3829FC0011124FC012CE0729F2F
:1020E000E00DF11D1124E60FF11DEE0FFF1FE4506E
:1020F000FF4F859194910895880F991FFC01E45E2C
:10210000FD4F859194910895CF93DF930E94A5117F
:10211000EC01811520E5920708F03FC0811540E4ED
:10212000940708F0D2C0883E910500F5803E9105E5
:1021300008F002C1883A910570F4853A910508F0DB
:10214000A6C08130910509F49FC008F4F2C004973D
:1021500008F0F2C0EEC08F3B910508F4A1C0803CAE
:10216000910508F4E6C0805C9109A5C0811550E294
:10217000950760F4C11581E0D80708F0DDC0CD3EB9
:10218000D10508F4D6C0CE019065D7C0811520E3F3
:10219000920708F093C09F708EC0811545E59407A3
:1021A00008F046C0811554E5950708F0A6C0C11592
:1021B00082E5D80718F5C11521E5D20708F088C0D7
:1021C000CE01F4E096958795FA95E1F7282F2370D4
:1021D0003C2F337081E090E002C0880F991F3A9540
:1021E000E2F79C68922B2C2F2F702695269540E2C3
:1021F000249F90011124822B932B9FC09E0123705A
:1022000033279C2F96959695C115D34508F065C048
:1022100041E050E002C0440F551F2A95E2F780E2EA
:10222000989F90011124CA01822B932B9C6885C032
:10223000811559E5950798F4C11588E5D80708F088
:1022400061C0C11526E5D20708F073C08C2F0E942B
:1022500039128F7190E0982F882790626EC0811597
:102260004AE5940708F453C090568115904208F04F
:1022700060C08D2F8F710E9439129E01332730620A
:102280008F71A901582B53C081E090E056C0855A48
:10229000C82FD0E0C957DE4F888190E090644DC0D0
:1022A000885AC82FD0E0CC0FDD1FC75ADE4F888177
:1022B0009981946442C00E947C103FC09927D3FF4B
:1022C00002C0986C3AC0906C38C09F70906A35C05C
:1022D0009C2F8827816F906A30C041E050E002C097
:1022E000440F551F2A95E2F780E2989F9001112430
:1022F000CA01822B932B9A6820C0982F8827846F5D
:10230000906A1BC09C2F8827806F906A16C08F70C0
:102310000E9439129E0194E0369527959A95E1F72F
:102320002F7030E0322F22273069A901482BCA01D3
:1023300004C080E090E001C0CE01DF91CF9108950C
:102340000E9469100E94841008958238910569F1F5
:10235000B0F48133910509F46DC048F489329105D8
:1023600009F463C08A32910509F469C00895853380
:10237000910509F455C089339105B9F00895833E5C
:10238000910569F138F4803E9105B1F0823E9105E6
:1023900009F10895863E9105A9F1873E9105B9F1AD
:1023A000843E910509F064C023C02091A40220FD61
:1023B0004FC021FD4DC008958091A40280FD44C00E
:1023C0008091A50280FF44C08091A40284FD42C098
:1023D00083EE4DC08091A40282FF38C0F5CF80917A
:1023E000A40282FD33C08091A50280FD31C0ECCFF4
:1023F0008091A50281FF32C08091A40284FD2AC091
:1024000087EE35C08091A40283FF26C0F5CF80916E
:10241000A40283FD21C08091A50281FD1FC0ECCFE5
:102420008091A40285FD1CC01DC08091A40285FD81
:1024300019C016C08091A40286FD16C017C08091F5
:10244000A40286FD13C010C089E311C082EE0FC044
:1024500080EE0DC080E00BC086EE09C084EE07C0A0
:1024600089E205C085E303C08AE201C081E390E010
:1024700008959091A40292FF0DC0282F2871283052
:1024800019F4877F846006C0282F2471243011F44A
:102490008B7F886093FF0DC0282F2871283119F495
:1024A000877E846106C0282F2471243111F48B7E2D
:1024B00088612091A50220FF0DC0382F3871383077
:1024C00019F4877F816006C0382F3171313011F4E3
:1024D0008E7F886021FF0DC0282F2871283119F4C4
:1024E000877E816106C0282F2171213111F48E7EF3
:1024F000886194FD877E089580E008950C94B30E62
:102500000E94A6138FE39CE90197F1F700C0000039
:102510000E94A61380E00E94BA1280FF04C00E94AD
:102520007E120C949F2308950C9480120E94B90E81
:10253000811102C00E94610F0E94C40E8093570255
:102540000E94CC0E9093A5028093A4020E94941244
:102550000E94C80E682F70E080E090E00E94710831
:102560006091E1017091E2018091E3019091E401B9
:102570000C94A908E82FF0E0EE0FFF1FE255FD4F85
:10258000808191810895089580EA8A95F1F70895F0
:1025900000C008950C94C41208950C94CC120C94AD
:1025A000CD120C94CC120C94D112F894E82FE29531
:1025B000EF70F0E031A1282F2F7081E090E001C092
:1025C000880F2A95EAF7982F9095932391A392A1CB
:1025D000892B82A3789408950F931F93CF93DF9351
:1025E000C6E9D1E089918F3F11F00E94D51281E0B8
:1025F000CA39D807B9F7CAE8D1E006E911E08991EC
:102600008F3F11F00E94D5120C171D07C1F7DF9103
:10261000CF911F910F910895AF92BF92CF92DF9209
:10262000EF92FF920F931F93CF93DF938C01C62FEE
:10263000D0E0CE018A569E4F6C01DC019C919F3FF9
:1026400009F457C0B62EF894E92FE295EF70F0E048
:1026500081A19F7021E030E001C0220F9A95EAF736
:10266000822B81A382A12095282322A378940E9403
:10267000C812EAE8F1E020E030E0E12CF12C41E082
:1026800050E081918F3FC1F0A82FA295AF70B0E0CC
:1026900090966C9170E08F70DB0102C0B595A795A4
:1026A0008A95E2F7A0FD08C0CA01022E02C0880F79
:1026B000991F0A94E2F702C080E090E0E82AF92A24
:1026C0002F5F3F4F2C303105E1F6F60180818F3FBF
:1026D00011F00E94D51261E0E114F10409F460E008
:1026E0008B2D0E94CA12CC0FDD1FC00FD11FF982A3
:1026F000E882DF91CF911F910F91FF90EF90DF90D3
:10270000CF90BF90AF9008950E94EC12A6EAB2E07D
:1027100011961C921E92EEEAF2E01182108213963C
:102720001C921E9212971382128215961C921E9270
:1027300014971582148217961C921E921697178270
:10274000168284E00E94F1130C946903FF920F93A8
:102750001F93CF93DF93CDB7DEB728970FB6F894CA
:10276000DEBF0FBECDBF8E010F5F1F4F88E0F801A7
:1027700011928A95E9F7F12C6F2DC8010E940C1374
:10278000F394F4E0FF12F8CF48E050E0B80186EA95
:1027900092E00E942C2BFF24F394009709F4F12C73
:1027A000892B41F088E0F801A6EAB2E001900D9291
:1027B0008A95E1F72F2D44E06EEA72E086EA92E016
:1027C0000E94F2130E9471038F2D28960FB6F89481
:1027D000DEBF0FBECDBFDF91CF911F910F91FF9054
:1027E00008950895FF920F931F93CF93DF93F82ED0
:1027F000092F162FD72FC42F222349F081E0809371
:102800005A020E9452239093590280935802809159
:102810005A028823D9F080915802909159020E945F
:102820006A23059798F0EF2DF02FA12FBD2F80E0A0
:1028300090E04C2F50E08417950734F421913191AA
:102840002D933D930196F7CF10925A02DF91CF91CD
:102850001F910F91FF9008950E94C4220E94392574
:102860000E9452250E9464250E949D0FFBCF8091FB
:10287000610280FF0BC06091070185E0689FB00195
:10288000112475956795759567952BC081FF09C0D3
:102890006091070185E0689FB001112475956795E7
:1028A00020C082FF07C06091070185E0689FB001EA
:1028B000112417C0909160029923D1F06091060114
:1028C000961788F72091070185E0289F9001112431
:1028D000929FA001939F500D112470E0CA010E94A5
:1028E000B22A6038710540F46115710519F406C00B
:1028F00065E070E0862F08958FE7089581E00895E0
:102900008091610280FF08C06091030170E07595BD
:1029100067957595679521C081FF06C06091030199
:1029200070E07595679519C082FF04C0609103013E
:1029300070E010C090915F02992399F060910201BC
:102940009617A0F780910301899FC001112470E0C0
:102950000E94B22A6038710540F46115710519F4BE
:1029600006C061E070E0862F08958FE7089581E04A
:1029700008958D3E21F40E943714819504C08E3E47
:1029800029F40E9437148093650208958F3E21F444
:102990000E943714819504C0803F29F40E943714A7
:1029A000809364020895893F19F40E94801405C041
:1029B0008A3F31F40E9480148195809366020895C5
:1029C0008B3F21F40E948014819504C08C3F29F430
:1029D0000E9480148093670208959FE0980F9830BA
:1029E00078F421E030E0A90102C0440F551F9A9508
:1029F000E2F7CA0190916302892B809363020895E4
:102A00008D3F21F48091610281600BC08E3F21F4E3
:102A100080916102826005C08F3F29F4809161023C
:102A200084608093610208958D3E39F4909165022F
:102A300097FF35C01092650259C08E3E29F49091DF
:102A400065021916BCF32BC0909164028F3E29F4E5
:102A500097FF25C01092640249C0803F19F41916EF
:102A6000CCF31DC090916602893F29F41916BCF47D
:102A7000109266023BC08A3F19F497FF10C0F8CF4E
:102A80008B3F39F49091670297FF09C0109267025B
:102A90002DC08C3F21F4909167021916BCF39FE082
:102AA000980F983080F421E030E0A90102C0440F73
:102AB000551F9A95E2F7CA01809590916302892388
:102AC0008093630213C08D3F21F4809161028E7F59
:102AD0000BC08E3F21F4809161028D7F05C08F3F36
:102AE00029F4809161028B7F80936102809164025E
:102AF000811106C080916502811102C010926002AE
:102B000080916602811106C080916702811102C026
:102B100010925F0208950E945223209164022111B5
:102B200004C020916502222321F090935E028093DD
:102B30005D0220916602211104C0209167022223C8
:102B400021F090935C0280935B0282E692E00C9409
:102B5000CC21EF92FF920F931F93CF93DF9300D07E
:102B600000D000D0CDB7DEB786E0E2E6F2E0DE01CD
:102B7000119601900D928A95E1F7E0906402F09031
:102B80006502009166021091670210926402109231
:102B900065021092660210926702E11003C0FF20E6
:102BA00009F45DC080915D0290915E020E946A23EB
:102BB000AC0190916002992339F02091080130E036
:102BC0002417350758F04BC0209109018AE0289F4F
:102BD000900111242417350718F041C09F3F19F0C8
:102BE0009F5F90936002EE2061F00E9437141E14E4
:102BF00014F09FEF01C091E0989F902D11249093C5
:102C00006402FF2061F00E9437141F1414F09FEF3C
:102C100001C091E0989F902D11249093650230910E
:102C200064023323E1F0209165022223C1F045EBD9
:102C30003403C0011124992319F09093640203C056
:102C400081E08093640235EB2303C00111249923B2
:102C500019F09093650203C081E080936502011131
:102C600003C0112309F45DC080915B0290915C0266
:102C70000E946A23AC0190915F02992339F0209160
:102C8000040130E02417350758F04BC020910501AE
:102C90008AE0289F900111242417350718F041C0BD
:102CA0009F3F19F09F5F90935F02002361F00E94A5
:102CB0008014101614F09FEF01C091E0989F902DA2
:102CC000112490936602112361F00E948014111662
:102CD00014F09FEF01C091E0989F902D11249093E4
:102CE0006702309166023323E1F0209167022223CC
:102CF000C1F045EB3403C0011124992319F09093DE
:102D0000660203C081E08093660235EB2303C001B5
:102D10001124992319F09093670203C081E08093F6
:102D200067028091640281110BC08091650281115C
:102D300007C080916602811103C0809167028111F2
:102D40000E948B15EB82FC820D831E8386E0FE01C0
:102D50003196A2E6B2E001900D928A95E1F72696AF
:102D60000FB6F894DEBF0FBECDBFDF91CF911F919C
:102D70000F91FF90EF900895E2E6F2E086E0DF0128
:102D80001D928A95E9F71092600210925F021092EC
:102D900061020895EF92FF920F931F93CF93DF93F9
:102DA0008B01682F11110AC0442329F0E82FF0E0AD
:102DB000ED5CFC4F6491762F862F75C0212F30E09B
:102DC000E82FF0E0442321F0ED5CFC4FE491F0E0CB
:102DD00046E0049FC0011124CFEFD0E0BE010E9465
:102DE0009E2A4BEA4603C001479F900D1124800F95
:102DF000911D800F911D982F990F890FAE01421BD5
:102E0000530B4E9FD0014F9FB00D5E9FB00D11240C
:102E10009B2F189FA0011124452F55278E01041BBD
:102E2000150B0E9FA0010F9F500D1E9F500D1124DA
:102E30007E01E81AF108E29E8001E39E100DF29EE9
:102E4000100D1124212F3327C21BD30BCE9F9001CD
:102E5000CF9F300DDE9F300D112462307105A9F037
:102E600048F46115710569F061307105C9F48B2F63
:102E7000752F0DC06430710581F058F06630710512
:102E800079F47E2F8B2F932F0DC0832F7B2F9E2FB6
:102E900009C08E2F7B2F952F05C08E2F732F02C058
:102EA0007E2F852F692FDF91CF911F910F91FF907A
:102EB000EF90089541E00E94CA16089508950E9477
:102EC0005A170895CF93DF93762FE901682F842F47
:102ED0000E945F17798368838A83DF91CF91089579
:102EE0008091B602282F269530E02115310519F47E
:102EF0008170826005C02532310524F081708864BC
:102F00008093B602089588E090E00C94412BCF9214
:102F1000DF92EF92FF926B017C010E947017B70164
:102F2000A60188E090E0FF90EF90DF90CF900C94A6
:102F30005F2BE6EBF2E083E0808311828FEF8283E8
:102F40008383148260817181828193810C948717BD
:102F50008091B60280FF02C08695089580E00895B2
:102F60009091BA02933018F49F5F9093BA0288232D
:102F700051F06091B6027091B7028091B8029091C1
:102F8000B9020C948717089581E00C94B0179091C2
:102F9000BA02992319F091509093BA02882351F004
:102FA0006091B6027091B7028091B8029091B90217
:102FB0000C948717089581E00C94C71770E00C9467
:102FC000551F60910E018091B60280FF0AC080916A
:102FD0000D0123E0829FC001112485549D4F0C9464
:102FE000DE1780910F0190911001891780F7E82F6B
:102FF000F0E09F01220F331FE20FF31FE554FD4F56
:103000001182108212828F5FF0CF9091B60290FFF2
:1030100016C090910F0120911001921770F4E92FC2
:10302000F0E0DF01AA0FBB1FEA0FFB1FE554FD4FC5
:103030008183608342839F5FF0CF0C94E1170895F2
:10304000CF93DF9300D01F92CDB7DEB79091B60239
:1030500090FF0AC09E012F5F3F4F0E9462174B8175
:1030600069818A810E9405180F900F900F90DF915F
:10307000CF910895CF93DF93EC01EC81F0E0E25D16
:10308000FD4F4491E6EBF2E0628181810E942018BD
:103090008C818F5F8C83DF91CF910895CF93DF93E5
:1030A000EC01E6EBF2E0438162818C810E94201802
:1030B0008C818F5F8C83DF91CF9108950F931F9345
:1030C000CF93DF9300D01F92CDB7DEB78C018091F4
:1030D000680281110AC09E012F5F3F4F4FEF6FEFD3
:1030E0000E9462178A8180936802F801848181308E
:1030F00051F028F0823061F4409168020AC080915A
:10310000680240E007C06091680240E080E003C0D0
:1031100040E080E060E00E940518F801848190E0C2
:10312000019663E070E00E94B22A84830F900F90B2
:103130000F90DF91CF911F910F910895AF92BF92A1
:10314000CF92DF92EF92FF920F931F93CF93DF9373
:1031500000D01F92CDB7DEB7182FF62E042FE22E27
:103160009091B60290FF6DC0E92FE695AE2FB0E0CA
:10317000A656BE4F8C91809372029E7F923061F46E
:103180009E012F5F3F4F812F0E9462174B81698103
:103190008A810E94051843C0823019F40091B90257
:1031A0003EC0863019F41091B70239C08930D9F386
:1031B0008931A9F5E9518E2F8170D82EE695F0E07E
:1031C000E25DFC4FA590B490C12CBB24609111012D
:1031D000C61618F52C2D30E0A29EC001A39E900DBE
:1031E000B29E900D112470E00E949E2A812FD11072
:1031F00002C0860F01C0861B90910F01290F311D5F
:10320000A901440F551F240F351F25543D4F402F52
:103210006F2D0E946217C394D9CF0E94E1171093BB
:10322000B702F092B8020093B902EE2051F060911B
:10323000B6027091B7028091B8029091B9020E94D3
:1032400087170F900F900F90DF91CF911F910F91E3
:10325000FF90EF90DF90CF90BF90AF900895E6EB96
:10326000F2E09181282F438162818AE0890F0C94DA
:103270009E1881E00C942F19E6EBF2E09181282F43
:103280004381628186EF890F0C949E1881E00C9433
:103290003C19E6EBF2E0628121E1620F08F46FEF86
:1032A000282F438181810C949E1881E00C94491948
:1032B000E6EBF2E0628121E1621B08F460E0282F76
:1032C000438181810C949E1881E00C945819E6EB9F
:1032D000F2E0438121E1420F08F44FEF282F628191
:1032E00081810C949E1881E00C946719E6EBF2E062
:1032F000438121E1421B08F440E0282F6281818153
:103300000C949E1881E00C94761920E00C949E1881
:10331000FF920F931F93CF93DF93EC01F12C0FEFEC
:1033200010E060911101F616F0F480910F012F2D3D
:1033300030E0280F311DC901880F991F280F391F50
:1033400025543D4F70E0C8010E94B22A962F8C810F
:103350004091B9026091B802F99E800D11240E943B
:103360006217F394DECF0E94E1179A818C8190FF5F
:1033700002C08F5F01C081508C83DF91CF911F917C
:103380000F91FF900895BF92CF92DF92EF92FF923C
:103390000F931F93CF93DF93FC01828180FF02C0C4
:1033A0000FEF01C001E010E080911101181708F043
:1033B00040C080910F01C12ED12CE601C80FD11D54
:1033C000CE01880F991FC80FD91FC554DD4F198230
:1033D00018821A8234E0E32EF12CB12C80916A021B
:1033E0008B0D853014F0837005C087FF03C090916A
:1033F0001101890F082E000C990BC816D90691F4FB
:103400008091B9028E9DA0018F9D500D112455957C
:103410004795559547959E016091B8028091B702F6
:103420000E946217B00EF1E0EF1AF108B9F61F5FC3
:10343000BBCF0E94E11780916A02013031F4811103
:1034400002C080911101815007C090E00196609107
:10345000110170E00E94B22A80936A02DF91CF913D
:103460001F910F91FF90EF90DF90CF90BF90089544
:10347000CF9380910F0190911001891770F4E82F7C
:10348000F0E09F01220F331FE20FF31FE554FD4FC1
:103490001182108212828F5FF0CFC0E06091110123
:1034A000C617C0F5EC2FF0E070E0CF010E94B22A01
:1034B00020910F01820F20916902022E000C330B24
:1034C00090E0E217F307CCF020910C01022E000CE3
:1034D000330B2E173F078CF09C01220F331F820FF6
:1034E000931F9C0125543D4F4091B9026091B80251
:1034F0008091B7020E9462170BC0FC01EE0FFF1F04
:103500008E0F9F1FFC01E554FD4F11821082128225
:10351000CF5FC4CF0E94E11720910B018091690217
:10352000820F8093690290910C01920F90930C018D
:1035300019165CF4082E000C990B4091110150E013
:1035400041505109841795071CF0219520930B01D8
:10355000CF9108958F929F92AF92BF92CF92DF92B8
:10356000EF92FF920F931F93CF93DF938C01FC0197
:103570004481C42FD0E09E01DE010E94F62A9B0107
:10358000AC010E940C2B6B017C01E0E2F0E0EC1B33
:10359000FD0BA5E5B0E09B01AC010E940C2B4B019B
:1035A0005C019F01DF010E94EE2A9B01AC010E9499
:1035B000172B9B01AC012C0D3D1D4E1D5F1DC50140
:1035C000B4010E94C62AC22FD22F2A3228F4F3E077
:1035D0002F9F900111240DC025E530E02C1B3109EF
:1035E000C901880F991F280F391F37FF02C02F5FAD
:1035F0003F4F35952795C22FC095F12C85E5E82ED4
:10360000ED1A80911101F816C8F4F1FC02C08E2D5C
:1036100001C08D2F90910F012F2D30E0290F311D0A
:10362000A901440F551F240F351F25543D4F4C2F22
:103630006091B8020E946217F394E3CF0E94E117F1
:10364000F8018481811102C091E003C0803219F435
:103650009FEF90930A0190910A01890FF8018483EA
:10366000DF91CF911F910F91FF90EF90DF90CF905E
:10367000BF90AF909F908F9008950F931F93CF931B
:10368000DF93EC0100E010E080911101282F30E081
:103690000217130724F590910F019801290F311D8E
:1036A000A901440F551F240F351F25543D4F869502
:1036B00090E04C81081719071CF4442331F002C034
:1036C000411103C04091B90201C040E06091B802CD
:1036D0008091B7020E9462170F5F1F4FD5CF0E94E3
:1036E000E1178C8190E00196817099278C83DF919E
:1036F000CF911F910F910895E6EBF2E080818E7FCC
:10370000808360817181828193810E9487171092EA
:1037100073022FEF80E792E0215080409040E1F764
:1037200000C000000C94E1176091B602669570E04D
:103730004BE050E082E191E00E941F2B892B19F4AD
:1037400081E0809373020E94522390936C028093D5
:103750006B0208959091B60290FF35C0917081116F
:1037600002C0926006C0853210F0986402C0880FD3
:10377000982B9093B602662351F06091B602709137
:10378000B7028091B8029091B9020E9487176091A8
:10379000B602669570E04BE050E082E191E00E9455
:1037A0001F2B892B19F01092730202C00E94941BE8
:1037B00081E080936E024091B9026091B8028091DD
:1037C000B7020C9485190895682F9091B6029695CA
:1037D00081E0890F853208F081E00C94AA1B81E01A
:1037E0000C94E41B682F9091B60296958FEF890F89
:1037F00009F484E20C94AA1B81E00C94F21B61E0B2
:103800000C94AA1BE6EBF2E08081816080838695B0
:103810000C94FF1B8091B60280FD0C947C1B0C94D1
:10382000021C60E00C94AA1B8091710281112EC0D1
:103830000E94B90E811104C00E94610F0E94991765
:103840000E9483176093B6027093B7028093B80208
:103850009093B9026E7F61F40E9499170E948317BA
:103860006093B6027093B7028093B8029093B90246
:103870000E947017109273028091B60280FF03C0FD
:1038800086950E94111C81E08093710208950F9328
:103890001F93CF93DF9380917302882309F485C02F
:1038A00080917202E091B602E695E81BE0936D020A
:1038B000823049F4F0E0E65DFD4FE491CE2FD0E098
:1038C0000AE318E149C0863049F4F0E0E95DFD4FB4
:1038D000E491CE2FD0E00EE418E13EC0893051F4DF
:1038E000E695F0E0EC5DFD4FE491CE2FD0E008E8E6
:1038F00019E132C08F3051F4E695F0E0EF5DFD4FF5
:10390000E491CE2FD0E003EC19E126C0853149F4D3
:10391000F0E0E25EFD4FE491CE2FD0E008E31AE143
:103920001BC0883181F0833239F4ECE1F2E0C591BB
:10393000D4910EE518E110C0843251F4C4EFD1E007
:103940000DE31BE109C0C8E2D0E00AEA1AE104C0B5
:10395000C0EDD7E00EE517E180916E02882361F09B
:1039600010926E020E94522390936C0280936B021D
:103970001092700210926F020E945223E0916B022B
:10398000F0916C028E1B9F0B8F3F9F4770F4EC0FE2
:10399000FD1FF0936C02E0936B028BE692E0F8015E
:1039A000DF91CF911F910F910994DF91CF911F91DA
:1039B0000F910895882311F0FA0101C0FB010994C9
:1039C000CF93DF93C82FD62F0E94A8178C1740F0F3
:1039D0000E94A8178D1720F4DF91CF910C94EF1B54
:1039E0008C2FDF91CF910C94FF1B1F93CF93DF930C
:1039F000FB011281112309F4BCC0EC010E94F40DFB
:103A00008272CD3CFCE5DF0709F497C008F043C0A3
:103A1000C73CECE5DE0709F47CC0D8F4C43C9CE567
:103A2000D90709F46AC038F4C33CDC4509F0A4C0E6
:103A30000E940A1CA0C0C53C9CE5D90709F462C0DD
:103A4000C63CDC4509F098C046E459E169E379E1F8
:103A50005DC0CA3CFCE5DF0709F465C070F4C83CF2
:103A6000ECE5DE0709F45AC0C93CDC4509F084C026
:103A700045E559E164E679E149C0CB3C9CE5D907CD
:103A800009F456C0CC3CDC4509F076C04BED57E15B
:103A900064EC77E13BC0C23DFCE5DF0709F45AC0A6
:103AA00098F4CF3C9CE5D90709F44EC008F44AC00D
:103AB000C03DFCE5DF0709F44AC0C13DDC4509F023
:103AC0005BC06EE089E04EC0C53D9CE5D90709F4B6
:103AD00047C050F4C33DFCE5DF07F9F1C43DDC45C8
:103AE00009F04AC088E142C0C63D9CE5D907E9F12A
:103AF000CE35DD4509F43FC03FC04CEF5BE16FEED2
:103B00007BE104C04FEE5BE16CEF7BE10E94DA1CCD
:103B100032C049E359E166E479E1F8CF44E659E17E
:103B200065E579E1F3CF42E859E163E779E1EECF6A
:103B300043E759E162E879E1E9CF44EC57E16BED05
:103B400077E1E4CF81E012C065E082E00BC068E07D
:103B500086E008C064E18FE005C067E185E102C04E
:103B600062E289E10E94E01C06C083E20E94FF1B22
:103B700002C011E001C010E0812FDF91CF911F91B1
:103B8000089586E090E00C94392B682F86E090E051
:103B90000C944D2B8091C702847081628093C70280
:103BA0000C94C51D0E94B90E811104C00E94610FC2
:103BB0000E94CA1D0E94C11D8093C702282F26950E
:103BC0002695269530E02530310524F087708062F7
:103BD0008093C7028091C70280FF04C086958695B6
:103BE000869501C080E00C94E31E2091C702822FCD
:103BF000869586958695482F50E04430510554F4BB
:103C00008F5F982F990F990F990F822F8770892BAB
:103C10008093C7028091C70281608093C7020E948F
:103C2000C51D8091C7028695869586950C94E31EE6
:103C30008091C702982F969596959695A1F0915EE2
:103C4000990F990F990F8770892B8093C702887FEE
:103C500091E009F490E08091C70290FB80F9809395
:103C6000C7020E94C51D8091C702869586958695DC
:103C70000C94E31E8091C70280FD13C08160809385
:103C8000C702813019F489E08093C7028091C7028E
:103C90000E94C51D8091C7028695869586950C94D5
:103CA000E31E08958091C70280FF08C08E7F809335
:103CB000C7020E94C51D80E00C94E31E0895809108
:103CC000C70280FD0C94521E0C943A1E9091C702BC
:103CD000892F8695869586958F5F8F719770853031
:103CE00038F4880F880F880F892B8093C70202C091
:103CF0009093C7028091C702887F91E009F490E019
:103D00008091C70290FB80F98093C7020E94C51D75
:103D10008091C7028695869586950C94E31E853022
:103D200008F084E09091C7029770282F220F220F8D
:103D3000220F922B9093C702987F21E009F420E094
:103D40009091C70220FB90F99093C7020C94E31E58
:103D50000E948F1E8091C7020C94C51D9C01FB011F
:103D60008281882349F12E3BFCE53F07C9F040F4EE
:103D70002C3BECE53E0769F02D3B3C4561F0089596
:103D8000203C9CE5390791F070F0213C3C4589F0DE
:103D9000089584E001C080E00E94A81E80E008959C
:103DA0000E94181EFBCF0E94F51DF8CF0E945F1ED7
:103DB000F5CF0E94661EF2CF81E00895269A2E98D4
:103DC00008952E980895CF92DF92EF92FF92CF93AD
:103DD000C82F853050F4811109C0809180008F7DFB
:103DE000809380000E94E11E06C0C4E080918000A4
:103DF0008062809380002C2F30E0AFEFBFEF0E94F5
:103E0000F62ADC01CB0142E0B695A79597958795F8
:103E10004A95D1F78C3744E1940728F469E070E0C3
:103E20000E949E2A27C08A50974DAF4FBF4F6627EA
:103E3000782F892F9A2F25EF38E241E050E00E9439
:103E4000C62A69017A01CA01B9010E948E2A9B0122
:103E5000AC01C701B6010E948E2ABB27A92F982F5B
:103E6000872F009721E0A207B10511F0BC0102C025
:103E70006FEF7FEF70938B0060938A00CF91FF907C
:103E8000EF90DF90CF90089508950E94DE1E82E2A9
:103E90008093800089E1809381008FEF9FEF909362
:103EA0008700809386000C94D21D539A2BB1277FF4
:103EB0003BB138604FB7F894FC01CB01880F991FD4
:103EC000680F791F6E0F7F1FE617F70789F0819142
:103ED00098E03BB9000000C087FF2BB9880F0000B5
:103EE00000C000C000C02BB900C09A9591F7ECCF7C
:103EF0004FBF8FE594E00197F1F700C000000895EF
:103F00000F931F93CF93DF93C42FD22FFC01828195
:103F10008823C9F0409376020E9452239093750241
:103F20008093740280E28C0F883008F057C0C7700D
:103F300081E001C0880FCA95EAF7DF91CF911F9108
:103F40000F910C94830580917602481330C08091C4
:103F50007402909175020E946A23883C910538F59D
:103F600010E21D0FCD17B9F080E28C0F883040F4BD
:103F7000C77081E001C0880FCA95EAF70E948A05E0
:103F8000183028F581E09D2F977001C0880F9A9511
:103F9000EAF70E948305802F0E947A051830F0F41A
:103FA000D77081E001C0880FDA95EAF70AC080E295
:103FB0008C0F883098F4C77081E001C0880FCA95D3
:103FC000EAF7DF91CF911F910F910C948A05802F12
:103FD000DF91CF911F910F910C947A05DF91CF91D2
:103FE0001F910F9108950F939C01CB01243F4CE545
:103FF000340731F188F4293DFCE53F07D9F02A3D2B
:104000004CE5340779F1283D3C45A9F506E221EE5F
:1040100041EE68ED7CE52BC0263FFCE53F07E1F073
:10402000A8F0273F3C4539F507E225EE46EE67EF5D
:104030007CE51DC007E225EE45EE69ED7CE517C085
:1040400006E221EE40EE64EF7CE511C007E225EECA
:1040500044EE65EF7CE50BC006E221EE42EE66EF32
:104060007CE505C008E221E045EE6AED7CE50E94B2
:10407000801F80E008C0FC018281882319F0109223
:10408000760201C081E00F910895CF93DF93EC0198
:10409000FB018281882309F41FC1C230FCE5DF07E0
:1040A00008F41BC1C6319CE5D90738F09E012B5F8F
:1040B0003C452930310508F010C10E94CC0E909388
:1040C000A5028093A402C031ECE5DE0709F4C3C069
:1040D00008F041C0C8308CE5D80709F49AC0F0F464
:1040E000C430ECE5DE0709F487C068F4C2308CE523
:1040F000D80709F477C0C330DC4509F0E3C08091EC
:10410000A402826076C0C630ECE5DE0709F46EC01A
:1041100008F07BC08091A40288606BC0CC308CE535
:10412000D80709F485C068F4CA30ECE5DE0709F465
:1041300074C008F079C00E9410088091A4028068C1
:1041400058C0CE308CE5D80709F476C008F07FC09F
:104150008091A4028BC0CC3FECE5DE0709F44FC090
:1041600018F5C3318CE5D80709F47DC078F4C13166
:10417000ECE5DE0709F473C0C231DC4509F0A2C0EA
:104180000E9410088091A4028F7733C0C5318CE55E
:10419000D80709F472C008F486C0CB3FDC4509F0AB
:1041A00091C08091A5023EC0C115FDE5DF0709F46D
:1041B0005FC058F4CE3F9CE5D90709F444C008F429
:1041C0003FC08091A50282602DC0C230FDE5DF07AF
:1041D00009F475C008F45DC0C330DD4509F072C054
:1041E00080E06EC08091A402816003C08091A4022F
:1041F00080618093A40266C08091A40211C0809166
:10420000A50282608093A5025DC08091A4028062B5
:10421000F0CF8091A4028064ECCF8091A4028860EA
:104220008460E7CF8160EECF8091A4028E7FE1CFE2
:104230008091A4028D7FDDCF8091A402877FD9CFAA
:104240008091A50218C08091A5028D7FDBCF80915F
:10425000A4028F7ECECF8091A4028F7DCACF8091A1
:10426000A4028F7BC6CF8091A402877F8B7FC1CFB2
:104270008091A5028D7F8E7FC5CF8091A40282FBA5
:10428000222720F991E0922790FB82F990FB83F995
:10429000B0CF8091A502982F909591708E7F892B39
:1042A00090FB81F9AFCF0E9410088091A40287FB98
:1042B000222720F991E0922790FB87F99ACF81E09D
:1042C0000E94630F8091A4029091A5020E94DD0ECE
:1042D0000E94100880E001C081E0DF91CF91089535
:1042E000CF93DF9386319C4541F5EB010E94F40D9D
:1042F000982F8A812091000130910101882379F063
:104300009A7A81E009F480E080937702911102C0EB
:1043100069E201C065E3C9010E949C220AC0809144
:104320007702811102C069E201C065E3C9010E9400
:10433000A7220E94460E80E001C081E0DF91CF916C
:10434000089590937D0280937C020895E0917C0211
:10435000F0917D02309721F00190F081E02D0994D9
:1043600080E00895E0917C02F0917D02309799F011
:1043700020912701222359F02091A40227FF07C092
:10438000DC012C9111962C93119725E02C9302803F
:10439000F381E02D09940895E0917C02F0917D0273
:1043A000309739F022E0DC012C930480F581E02D78
:1043B0000994089520917A0230917B0228173907D9
:1043C00071F090937B0280937A02E0917C02F091ED
:1043D0007D02309721F00680F781E02D0994089541
:1043E00020917802309179022817390771F0909363
:1043F000790280937802E0917C02F0917D023097FF
:1044000021F00084F185E02D09940895FC01329695
:1044100080912701882331F08091A40287FF02C098
:104420009EE101C096E080E0915028F02191222386
:10443000D9F38F5FF9CF0895662351F120912701B9
:104440002223E9F02091A40227FF19C0462F4695A8
:10445000469546954E31E0F4677021E030E002C0A9
:10446000220F331F6A95E2F7FC01E40FF11D8281F0
:1044700090E02823392381E0232B69F409C0FC0153
:10448000329608962191621729F0E817F907D1F7BB
:1044900080E0089581E008959C01FC0132969FEF31
:1044A00080E04191461789F09F3F19F4411101C006
:1044B000982F8F5F8630A9F79F3F39F0F901E90FF8
:1044C000F11D97FDFA956283089508959C012A5F76
:1044D0003F4FFC014281461301C0128201968217B0
:1044E0009307B9F70895262F2695269526952E3100
:1044F00068F4FC01E20FF11D677021E030E001C0BB
:10450000220F6A95EAF78281282B22830895262FAD
:104510002695269526952E3170F4FC01E20FF11DAB
:10452000677021E030E001C0220F6A95EAF720951C
:10453000828128232283089520912701222329F0B4
:104540002091A40227FD0C9473220C944C222091FC
:104550002701222329F02091A40227FD0C94872211
:104560000C94662220912701FC013296222331F01F
:104570008091A40287FF02C08EE101C086E0DF01C6
:104580001D928A95E9F70895089508950C94C5221F
:104590000C94C522CF930E94C8220E94A6130E94A9
:1045A000C622C0E08C2F0E94BA12892B29F4CF5F5B
:1045B000C430C1F780E001C081E0CF9108950C9430
:1045C000C5220C94DF228091D002843061F10E94D8
:1045D000E12280E00E94E31E80E00E94F803109236
:1045E0007E0220E488E190E00FB6F894A8958093CD
:1045F00060000FBE2093600083B7817F846083BF1B
:1046000083B7816083BF7894889583B78E7F83BF9B
:104610000FB6F894A895809160008861809360003F
:10462000109260000FBE08950C94C5220E941008DD
:104630000E94D21D0E94A6210E94F8030C9414230C
:104640001F920F920FB60F9211248F939F93AF93E7
:10465000BF9380917E02811113C08091C802909116
:10466000C902A091CA02B091CB024196A11DB11D11
:104670008093C8029093C902A093CA02B093CB0260
:10468000BF91AF919F918F910F900FBE0F901F9090
:10469000189582E084BD93E095BD9AEF97BD809315
:1046A0006E0008952FB7F8948091C8029091C902C6
:1046B000A091CA02B091CB022FBF08952FB7F894F2
:1046C0006091C8027091C9028091CA029091CB0298
:1046D0002FBF08959C014FB7F8948091C802909124
:1046E000C902A091CA02B091CB024FBF821B930BAB
:1046F000089578941F920F920FB60F9211248F9302
:104700009F93AF93BF938091C8029091C902A091EB
:10471000CA02B091CB020196A11DB11D8093C802BF
:104720009093C902A093CA02B093CB02BF91AF91FC
:104730009F918F910F900FBE0F901F90189581E061
:104740008093E00080E28093D8001092C9008FE14E
:104750009EE40197F1F700C0000087E090EBDC01D8
:104760008093D9029093DA02A093DB02B093DC022B
:104770009CE088E10FB6F894A895809360000FBE86
:1047800090936000FFCF9093C1018093C001089582
:104790008091A20208959091D002943031F58093D7
:1047A0007F02709381026093800282E08093E9002F
:1047B0008FEF9091E800815095FD06C095ED9A9598
:1047C000F1F700008111F5CF8091E80085FF0DC061
:1047D00040E050E063E070E08FE792E00E94F02557
:1047E0008091E8008E778093E8000895BC0184E012
:1047F0000C94CB23BC0183E00C94CB2322E02093C8
:10480000E9002FEF3091E800215035FD06C035ED6D
:104810003A95F1F700002111F5CF2091E80025FF2E
:104820000BC040E050E066E070E00E94F02580910F
:10483000E8008E778093E8000895CF93DF9320916E
:104840002701222339F02091A40227FF03C060E250
:1048500022E002C068E021E02093E9002FEF3091D0
:10486000E800215035FD06C035ED3A95F1F700001E
:104870002111F5CF2091E80025FF1DC0EC018091AA
:104880002701811105C040E050E068E070E003C0FE
:1048900070E040E050E0CE010E94F0258091E800F9
:1048A0008E778093E80080E2FE01A2E8B2E00190FA
:1048B0000D928A95E1F7DF91CF9108958091CF0213
:1048C000811109C00E9481270E94DE278091E200A9
:1048D00084608093E20008951092CF0208950895B5
:1048E0000895089542E061EC81E00E94FA2642E2D8
:1048F00061EC82E00C94FA268091D202833009F4B4
:1049000060C030F4813071F0823009F499C00895AC
:104910008A3009F485C08B3009F46BC0893009F006
:10492000A7C020C08091D102813A09F0A1C0809136
:10493000E800877F8093E8008091D5029091D602AD
:10494000892B21F460E282E892E003C060E080E01D
:1049500090E070E00E943B268091E8008B77809386
:10496000E80008958091D102813209F081C08091E0
:10497000D5029091D602029708F07AC08091E800A3
:10498000877F8093E8008091E80082FD05C08091D8
:10499000D0028111F8CF6CC02091F3008091F20019
:1049A00090E0922B029729F48091F1008B7F813067
:1049B00021F48091F1008093A2028091E8008B772E
:1049C00053C08091D102813A09F052C08091D50242
:1049D0009091D602892B09F04BC08091E800877F27
:1049E0008093E8008091E80080FFFCCF8091270150
:1049F00036C08091D1028132D9F58091D502909153
:104A0000D602892BA9F58091E800877F8093E80082
:104A10000E942F278091D302809327010C941008C5
:104A20008091D102813221F58091E800877F8093C7
:104A3000E8000E942F278091D4028093A30208955A
:104A40008091D102813AA1F48091E800877F809320
:104A5000E8008091E80080FFFCCF8091A302809362
:104A6000F1008091E8008E778093E8000C942F2766
:104A7000089584B7877F84BF0FB6F894A895809176
:104A80006000886180936000109260000FBE90E02B
:104A900080E80FB6F89480936100909361000FBE98
:104AA0000C94930F0E9481270E94DE27E2EEF0E033
:104AB00080818460808378940E94732A0E94A10F71
:104AC0008DE191E00C94A1218091D0028530A9F470
:104AD0008091D002853079F40E94E3228091CE0249
:104AE0008823B1F30E94CA22882391F30E94DA2519
:104AF0000E941008EDCF0E9416230C94AB0F0C946B
:104B00008125292F332723303105C9F060F4213066
:104B1000310581F02230310509F044C08BE390E08B
:104B200029E534E043C021323105E1F0223231057C
:104B300049F138C082E190E024E934E037C0992798
:104B40008130910549F028F0029761F5E3E3F4E044
:104B500005C0E5E5F4E002C0E1E4F4E0849190E012
:104B60009F0124C06115710541F061307105D1F4D8
:104B700089E090E024E834E019C089E090E02BE679
:104B800034E014C06115710541F06130710551F4D4
:104B900086EB90E026EA34E009C080E490E02CE562
:104BA00035E004C080E090E020E030E0FA0131839D
:104BB0002083089580E189BD82E189BD09B400FEAA
:104BC000FDCF8091D8008F7D8093D8008091E00048
:104BD00082608093E0008091E00081FDFCCF089529
:104BE000CF92DF92EF92FF920F931F93CF93DF93B9
:104BF000EC018B017A010E944E27811133C0E11430
:104C0000F10439F0F70180819181081B190BC80F5D
:104C1000D91FC12CD12C0115110519F18091E80083
:104C200085FD16C08091E8008E778093E800E1143E
:104C3000F10449F0F70180819181C80ED91ED1821B
:104C4000C08285E00FC00E944E27882321F30AC04E
:104C500089918093F10001501109FFEFCF1ADF0A0B
:104C6000DACF80E0DF91CF911F910F91FF90EF900D
:104C7000DF90CF9008952091D7023091D802261767
:104C8000370748F06115710539F42091E8002E7757
:104C90002093E80001C0B901FC0120E06115710515
:104CA00079F18091D0028823F1F18530F1F1809182
:104CB000E80083FD3CC08091E80082FD2EC0809119
:104CC000E80080FFEBCF2091F3008091F20090E0AC
:104CD000922B6115710551F08830910538F42191BE
:104CE0002093F100615071090196F3CF21E00897FC
:104CF00009F020E08091E8008E778093E800CECF25
:104D00002111CFCF0AC08091D002882361F0853075
:104D100061F08091E80083FD0AC08091E80082FF85
:104D2000F2CF80E0089582E0089583E0089581E065
:104D300008952091D7023091D8022617370748F0FE
:104D40006115710539F42091E8002E772093E80071
:104D500001C0B901FC0120E06115710591F180915C
:104D6000D002882309F440C0853009F43FC0809107
:104D7000E80083FD3DC08091E80082FD2FC0809156
:104D8000E80080FFE9CF2091F3008091F20090E0ED
:104D9000922B6115710559F08830910540F42491EA
:104DA0002093F1003196615071090196F2CF21E014
:104DB000089709F020E08091E8008E778093E80062
:104DC000CBCF2111CCCF0AC08091D002882361F0D3
:104DD000853061F08091E80083FD0AC08091E80091
:104DE00082FFF2CF80E0089582E0089583E0089585
:104DF00081E00895982F973068F59093E90098170F
:104E000039F07091EC002091ED005091F00003C05A
:104E1000242F762F50E021FD02C09F5FECCF309110
:104E2000EB003E7F3093EB003091ED003D7F3093FF
:104E3000ED003091EB0031603093EB007093EC00AB
:104E40002093ED005093F0002091EE0027FDE5CF78
:104E500080E008958F708093E90081E0089580914B
:104E6000D10287FF11C08091E80082FD05C08091CA
:104E7000D0028111F8CF11C08091E8008B770BC070
:104E80008091D002882349F08091E80080FFF8CF1C
:104E90008091E8008E778093E80008952091E400E7
:104EA0003091E50095E64091EC00842F817040FF41
:104EB00023C08091E80080FD1DC08091D00288232E
:104EC00099F0853099F08091EB0085FD11C04091FB
:104ED000E4005091E5002417350729F3915011F0B3
:104EE0009A01E1CF84E0089582E0089583E0089577
:104EF00081E0089580E008954091E80042FFDDCF11
:104F000008950E94EF270E94F727E0EEF0E08081ED
:104F100081608083E8EDF0E080818F77808319BC29
:104F2000A7EDB0E08C918E7F8C9380818F7E808303
:104F30001092CF0208950F931F93CF93DF930E9497
:104F4000EF270E94F727C8EDD0E088818F7788830C
:104F500088818068888388818F7D888319BC1092BE
:104F6000D0021092CC021092CE021092CD0200EE2E
:104F700010E0F80180818B7F808388818160888345
:104F800042E060E080E00E94FA26E1EEF0E08081FD
:104F90008E7F8083E2EEF0E080818160808380817B
:104FA00088608083F80180818E7F80838881806122
:104FB0008883DF91CF911F910F910895E8EDF0E084
:104FC00080818F7E8083E7EDF0E080818160808347
:104FD00084E082BF81E08093CF020C949B27E8EDB0
:104FE000F0E080818E7F80831092E200089510921D
:104FF000DA001092E10008951F920F920FB60F92FF
:1050000011242F933F934F935F936F937F938F93CD
:105010009F93AF93BF93EF93FF938091E10082FF43
:105020000BC08091E20082FF07C08091E1008B7F7E
:105030008093E1000E94722A8091DA0080FF1FC0F5
:105040008091D80080FF1BC08091DA008E7F809312
:10505000DA008091D90080FF0DC080E189BD82E136
:1050600089BD09B400FEFDCF81E08093D0020E948B
:105070005E2405C019BC1092D0020E946C2480915D
:10508000E10080FF19C08091E20080FF15C080918F
:10509000E2008E7F8093E2008091E2008061809345
:1050A000E2008091D80080628093D80019BC85E02E
:1050B0008093D0020E9470248091E10084FF30C070
:1050C0008091E20084FF2CC080E189BD82E189BD2E
:1050D00009B400FEFDCF8091D8008F7D8093D80069
:1050E0008091E1008F7E8093E1008091E2008F7ECD
:1050F0008093E2008091E20081608093E2008091E1
:10510000CC02882311F084E007C08091E30087FD82
:1051100002C081E001C083E08093D0020E9471242C
:105120008091E10083FF29C08091E20083FF25C0C8
:105130008091E100877F8093E10082E08093D0023C
:105140001092CC028091E1008E7F8093E1008091EB
:10515000E2008E7F8093E2008091E2008061809384
:10516000E20042E060E080E00E94FA268091F000D8
:1051700088608093F0000E946F24FF91EF91BF91AF
:10518000AF919F918F917F916F915F914F913F91DF
:105190002F910F900FBE0F901F9018951F920F9296
:1051A0000FB60F9211242F933F934F935F936F93FA
:1051B0007F938F939F93AF93BF93CF93DF93EF939F
:1051C000FF93C091E900CF708091EC00D82FD1708F
:1051D00080FDD0E81092E9008091F000877F8093F5
:1051E000F00078940E9412291092E9008091F0005A
:1051F00088608093F000CD2BCF70C093E900FF91C1
:10520000EF91DF91CF91BF91AF919F918F917F915E
:105210006F915F914F913F912F910F900FBE0F9023
:105220001F9018951F93CF93DF93CDB7DEB7AA9742
:105230000FB6F894DEBF0FBECDBFE1EDF2E0809176
:10524000F100819322E0E93DF207C9F70E947C2436
:105250008091E80083FF2EC18091D1029091D2020B
:10526000492F50E04A30510508F024C1FA01EC58AA
:10527000FF4F0C94E82A803821F0823809F01AC1D7
:1052800008C08091CD029091CE02992389F082606E
:105290000FC08091D5028F70873008F00BC18093CA
:1052A000E9008091EB0085FB882780F91092E900E6
:1052B0009091E800977F9093E8008093F10010921E
:1052C000F100D1C0282F2D7F09F0F4C0882319F0F8
:1052D000823061F0EFC08091D302813009F0EAC0E2
:1052E000933009F080E08093CE022EC08091D302EB
:1052F00081112AC08091D5028F702FEF280F2630A0
:1053000008F0D8C08093E9002091EB0020FF1CC07A
:10531000933021F48091EB00806214C09091EB00F7
:1053200090619093EB0021E030E0A90102C0440FAE
:10533000551F8A95E2F74093EA001092EA008091A7
:10534000EB0088608093EB001092E9008091E80008
:10535000877F8093E8000E942F27ACC08111AAC0EC
:105360001091D3021F778091E3008078812B809386
:10537000E3008091E800877F8093E8000E942F2758
:105380008091E80080FFFCCF8091E30080688093EB
:10539000E300111102C082E001C083E08093D002DB
:1053A00089C08058823008F085C08091D3029091E6
:1053B000D4028C3D53E0950779F583E08A838AE235
:1053C00089834FB7F894DE01139620E03EE051E266
:1053D000E32FF0E050935700E49120FF03C0E295E3
:1053E000EF703F5FEF708E2F90E0EA3010F0C796BD
:1053F00001C0C0968D939D932F5F243149F74FBF15
:105400008091E800877F8093E8006AE270E0CE0137
:1054100001960E943B2616C06091D5027091D6027B
:10542000AE014F5F5F4F0E947F25BC01892B09F4BD
:1054300041C09091E800977F9093E80089819A811C
:105440000E9499268091E8008B778093E80032C013
:10545000803881F58091E800877F8093E800809113
:10546000CC028093F1008091E8008E7772CF811199
:1054700021C08091D3029091D40299270297D4F44D
:105480008091E800877F8093E8008091D302809329
:10549000CC020E942F278091CC02811106C08091FE
:1054A000E30087FD02C081E001C084E08093D00268
:1054B0000E9472248091E80083FF0AC08091E80076
:1054C000877F8093E8008091EB0080628093EB00FF
:1054D000AA960FB6F894DEBF0FBECDBFDF91CF9175
:1054E0001F9108950895CF938091D0028823A1F051
:1054F000C091E900CF709091EC00892F817090FDF0
:1055000080E8C82B1092E9008091E80083FD0E949A
:105510001229CF70C093E900CF910895DB018F93DA
:105520009F930E940C2BBF91AF91A29F800D911D64
:10553000A39F900DB29F900D11240895AA1BBB1B31
:1055400051E107C0AA1FBB1FA617B70710F0A61B83
:10555000B70B881F991F5A95A9F780959095BC01A4
:10556000CD01089597FB072E16F4009407D077FD20
:1055700009D00E949E2A07FC05D03EF490958195A3
:105580009F4F0895709561957F4F0895A1E21A2E5F
:10559000AA1BBB1BFD010DC0AA1FBB1FEE1FFF1FD7
:1055A000A217B307E407F50720F0A21BB30BE40B27
:1055B000F50B661F771F881F991F1A9469F760956E
:1055C0007095809590959B01AC01BD01CF01089528
:1055D000EE0FFF1F0590F491E02D09940E94F62A2A
:1055E000332312F48A1B9B0B0C94072BA29FB00150
:1055F000B39FC001A39F700D811D1124911DB29F07
:10560000700D811D1124911D08950E94F62AB7FF87
:105610000895821B930B08950E94F62AA59F900D72
:10562000B49F900DA49F800D911D11240895B7FF84
:105630000C940C2B0E940C2B821B930B0895FC01E5
:105640004150504030F001900616D1F73197CF010C
:105650000895882799270895FB01DC0104C08D91E6
:105660000190801921F441505040C8F7881B990BD4
:105670000895F999FECF92BD81BDF89A992780B51A
:105680000895A6E1B0E044E050E00C94732BA8E14B
:10569000B0E042E050E00C94732B262FF999FECF36
:1056A00092BD81BDF89A019700B4021639F01FBA75
:1056B00020BD0FB6F894FA9AF99A0FBE0895039692
:1056C000272F0E944E2B0E944D2B252F0E944E2BE0
:1056D000242F0C944E2B0196272F0E944E2B0C94B6
:1056E0004D2BDC01CB01FC01F999FECF06C0F2BDC8
:1056F000E1BDF89A319600B40D9241505040B8F790
:065700000895F894FFCFAC
:1057060023022808641E140A321E01010200040046
:10571600040401191A1B1C1D1E1F202122C8231D4B
:1057260024FE23FA23F62301E200E900EA00B5008D
:10573600B600B700CD008301CC008A019201940126
:105746002102230224022502260227022A02B3008E
:10575600B4006F007000818283E200E900EA00B5C0
:1057660000B600B700CD008301CC008A01920194F7
:10577600012102230224022502260227022A02B35D
:1057860000B4006F007000818283F1F0C667663056
:10579600943137353497F4F5F6F700010202020228
:1057A6000606060909090909090F0F0F0F0F0F153C
:1057B6001515181919191919191919191923240060
:00000001FF
